{
  "contractName": "IdSilo",
  "abi": [
    {
      "constant": false,
      "inputs": [
        {
          "name": "owner_",
          "type": "address"
        }
      ],
      "name": "setOwner",
      "outputs": [],
      "payable": false,
      "stateMutability": "nonpayable",
      "type": "function"
    },
    {
      "constant": true,
      "inputs": [],
      "name": "certifiers",
      "outputs": [
        {
          "name": "",
          "type": "address"
        }
      ],
      "payable": false,
      "stateMutability": "view",
      "type": "function"
    },
    {
      "constant": true,
      "inputs": [
        {
          "name": "",
          "type": "bytes32"
        }
      ],
      "name": "dataEntries",
      "outputs": [
        {
          "name": "dataType",
          "type": "string"
        },
        {
          "name": "name",
          "type": "string"
        },
        {
          "name": "hash",
          "type": "bytes32"
        }
      ],
      "payable": false,
      "stateMutability": "view",
      "type": "function"
    },
    {
      "constant": true,
      "inputs": [],
      "name": "owner",
      "outputs": [
        {
          "name": "",
          "type": "address"
        }
      ],
      "payable": false,
      "stateMutability": "view",
      "type": "function"
    },
    {
      "constant": true,
      "inputs": [
        {
          "name": "",
          "type": "uint256"
        }
      ],
      "name": "entryIds",
      "outputs": [
        {
          "name": "",
          "type": "bytes32"
        }
      ],
      "payable": false,
      "stateMutability": "view",
      "type": "function"
    },
    {
      "constant": true,
      "inputs": [
        {
          "name": "",
          "type": "bytes32"
        },
        {
          "name": "",
          "type": "uint256"
        }
      ],
      "name": "dataCertifiers",
      "outputs": [
        {
          "name": "",
          "type": "address"
        }
      ],
      "payable": false,
      "stateMutability": "view",
      "type": "function"
    },
    {
      "anonymous": false,
      "inputs": [
        {
          "indexed": false,
          "name": "newOwner",
          "type": "address"
        }
      ],
      "name": "LogSetOwner",
      "type": "event"
    },
    {
      "constant": true,
      "inputs": [
        {
          "name": "entryId",
          "type": "bytes32"
        },
        {
          "name": "certifier",
          "type": "address"
        }
      ],
      "name": "getCertification",
      "outputs": [
        {
          "name": "state",
          "type": "uint8"
        },
        {
          "name": "expiryTimestamp",
          "type": "uint256"
        },
        {
          "name": "certainty",
          "type": "uint16"
        }
      ],
      "payable": false,
      "stateMutability": "view",
      "type": "function"
    },
    {
      "constant": false,
      "inputs": [
        {
          "name": "name",
          "type": "string"
        },
        {
          "name": "dataType",
          "type": "string"
        },
        {
          "name": "hash",
          "type": "bytes32"
        }
      ],
      "name": "addDataEntry",
      "outputs": [],
      "payable": false,
      "stateMutability": "nonpayable",
      "type": "function"
    },
    {
      "constant": false,
      "inputs": [
        {
          "name": "certAddr",
          "type": "address"
        },
        {
          "name": "entryId",
          "type": "string"
        }
      ],
      "name": "requestCertification",
      "outputs": [],
      "payable": false,
      "stateMutability": "nonpayable",
      "type": "function"
    },
    {
      "constant": false,
      "inputs": [
        {
          "name": "entryId",
          "type": "string"
        },
        {
          "name": "state",
          "type": "uint8"
        },
        {
          "name": "expiryTimestamp",
          "type": "uint256"
        },
        {
          "name": "certainty",
          "type": "uint16"
        }
      ],
      "name": "certifyClaim",
      "outputs": [],
      "payable": false,
      "stateMutability": "nonpayable",
      "type": "function"
    }
  ],
  "bytecode": "0x6060604052336000806101000a81548173ffffffffffffffffffffffffffffffffffffffff021916908373ffffffffffffffffffffffffffffffffffffffff160217905550610e3d806100536000396000f3006060604052600436106100a4576000357c0100000000000000000000000000000000000000000000000000000000900463ffffffff16806313af4035146100a95780632f565277146100e2578063361c36d5146101375780634c804e9c1461028c57806365f630951461030a5780636c316f20146103895780638da5cb5b14610405578063bdaa081d1461045a578063cabf185314610499578063f148e2ae14610509575b600080fd5b34156100b457600080fd5b6100e0600480803573ffffffffffffffffffffffffffffffffffffffff169060200190919050506105b6565b005b34156100ed57600080fd5b6100f56106d8565b604051808273ffffffffffffffffffffffffffffffffffffffff1673ffffffffffffffffffffffffffffffffffffffff16815260200191505060405180910390f35b341561014257600080fd5b61015c6004808035600019169060200190919050506106fe565b60405180806020018060200184600019166000191681526020018381038352868181546001816001161561010002031660029004815260200191508054600181600116156101000203166002900480156101f75780601f106101cc576101008083540402835291602001916101f7565b820191906000526020600020905b8154815290600101906020018083116101da57829003601f168201915b505083810382528581815460018160011615610100020316600290048152602001915080546001816001161561010002031660029004801561027a5780601f1061024f5761010080835404028352916020019161027a565b820191906000526020600020905b81548152906001019060200180831161025d57829003601f168201915b50509550505050505060405180910390f35b341561029757600080fd5b6102d060048080356000191690602001909190803573ffffffffffffffffffffffffffffffffffffffff16906020019091905050610726565b604051808460038111156102e057fe5b60ff1681526020018381526020018261ffff1661ffff168152602001935050505060405180910390f35b341561031557600080fd5b610387600480803590602001908201803590602001908080601f0160208091040260200160405190810160405280939291908181526020018383808284378201915050505050509190803560ff1690602001909190803590602001909190803561ffff169060200190919050506107c1565b005b341561039457600080fd5b610403600480803573ffffffffffffffffffffffffffffffffffffffff1690602001909190803590602001908201803590602001908080601f01602080910402602001604051908101604052809392919081815260200183838082843782019150505050505091905050610916565b005b341561041057600080fd5b610418610ad9565b604051808273ffffffffffffffffffffffffffffffffffffffff1673ffffffffffffffffffffffffffffffffffffffff16815260200191505060405180910390f35b341561046557600080fd5b61047b6004808035906020019091905050610afe565b60405180826000191660001916815260200191505060405180910390f35b34156104a457600080fd5b6104c7600480803560001916906020019091908035906020019091905050610b22565b604051808273ffffffffffffffffffffffffffffffffffffffff1673ffffffffffffffffffffffffffffffffffffffff16815260200191505060405180910390f35b341561051457600080fd5b6105b4600480803590602001908201803590602001908080601f0160208091040260200160405190810160405280939291908181526020018383808284378201915050505050509190803590602001908201803590602001908080601f0160208091040260200160405190810160405280939291908181526020018383808284378201915050505050509190803560001916906020019091905050610b70565b005b6000809054906101000a900473ffffffffffffffffffffffffffffffffffffffff1673ffffffffffffffffffffffffffffffffffffffff163373ffffffffffffffffffffffffffffffffffffffff1614151561061157600080fd5b806000806101000a81548173ffffffffffffffffffffffffffffffffffffffff021916908373ffffffffffffffffffffffffffffffffffffffff1602179055507fce241d7ca1f669fee44b6fc00b8eba2df3bb514eed0f6f668f8f89096e81ed946000809054906101000a900473ffffffffffffffffffffffffffffffffffffffff16604051808273ffffffffffffffffffffffffffffffffffffffff1673ffffffffffffffffffffffffffffffffffffffff16815260200191505060405180910390a150565b600160009054906101000a900473ffffffffffffffffffffffffffffffffffffffff1681565b6002602052806000526040600020600091509050806000019080600101908060020154905083565b60008060008060026000876000191660001916815260200190815260200160002060030160008673ffffffffffffffffffffffffffffffffffffffff1673ffffffffffffffffffffffffffffffffffffffff16815260200190815260200160002090508060000160009054906101000a900460ff169350806001015492508060020160009054906101000a900461ffff169150509250925092565b6000806000866040518082805190602001908083835b6020831015156107fc57805182526020820191506020810190506020830392506107d7565b6001836020036101000a0380198251168184511680821785525050505050509050019150506040518091039020925060026000846000191660001916815260200190815260200160002091508160030160003373ffffffffffffffffffffffffffffffffffffffff1673ffffffffffffffffffffffffffffffffffffffff168152602001908152602001600020905060038081111561089757fe5b8160000160009054906101000a900460ff1660038111156108b457fe5b1415156108c057600080fd5b858160000160006101000a81548160ff021916908360038111156108e057fe5b0217905550848160010181905550838160020160006101000a81548161ffff021916908361ffff16021790555050505050505050565b60008060009054906101000a900473ffffffffffffffffffffffffffffffffffffffff1673ffffffffffffffffffffffffffffffffffffffff163373ffffffffffffffffffffffffffffffffffffffff1614151561097357600080fd5b816040518082805190602001908083835b6020831015156109a95780518252602082019150602081019050602083039250610984565b6001836020036101000a03801982511681845116808217855250505050505090500191505060405180910390209050600360026000836000191660001916815260200190815260200160002060030160008573ffffffffffffffffffffffffffffffffffffffff1673ffffffffffffffffffffffffffffffffffffffff16815260200190815260200160002060000160006101000a81548160ff02191690836003811115610a5357fe5b02179055506003600082600019166000191681526020019081526020016000208054806001018281610a859190610cef565b9160005260206000209001600085909190916101000a81548173ffffffffffffffffffffffffffffffffffffffff021916908373ffffffffffffffffffffffffffffffffffffffff16021790555050505050565b6000809054906101000a900473ffffffffffffffffffffffffffffffffffffffff1681565b600481815481101515610b0d57fe5b90600052602060002090016000915090505481565b600360205281600052604060002081815481101515610b3d57fe5b90600052602060002090016000915091509054906101000a900473ffffffffffffffffffffffffffffffffffffffff1681565b60008060009054906101000a900473ffffffffffffffffffffffffffffffffffffffff1673ffffffffffffffffffffffffffffffffffffffff163373ffffffffffffffffffffffffffffffffffffffff16141515610bcd57600080fd5b836040518082805190602001908083835b602083101515610c035780518252602082019150602081019050602083039250610bde565b6001836020036101000a0380198251168184511680821785525050505050509050019150506040518091039020905060606040519081016040528084815260200185815260200183600019168152506002600083600019166000191681526020019081526020016000206000820151816000019080519060200190610c89929190610d1b565b506020820151816001019080519060200190610ca6929190610d1b565b506040820151816002019060001916905590505060048054806001018281610cce9190610d9b565b91600052602060002090016000839091909150906000191690555050505050565b815481835581811511610d1657818360005260206000209182019101610d159190610dc7565b5b505050565b828054600181600116156101000203166002900490600052602060002090601f016020900481019282601f10610d5c57805160ff1916838001178555610d8a565b82800160010185558215610d8a579182015b82811115610d89578251825591602001919060010190610d6e565b5b509050610d979190610dc7565b5090565b815481835581811511610dc257818360005260206000209182019101610dc19190610dec565b5b505050565b610de991905b80821115610de5576000816000905550600101610dcd565b5090565b90565b610e0e91905b80821115610e0a576000816000905550600101610df2565b5090565b905600a165627a7a72305820b900ff55a00ca0a15ac09f8c25f7414ee3cbd9a65a4cce01c708a0386cb879e20029",
  "source": "// Copyright (c) 2017 Sweetbridge Inc.\n//\n// Licensed under the Apache License, Version 2.0 (the \"License\");\n// you may not use this file except in compliance with the License.\n// You may obtain a copy of the License at\n//\n//     http://www.apache.org/licenses/LICENSE-2.0\n//\n// Unless required by applicable law or agreed to in writing, software\n// distributed under the License is distributed on an \"AS IS\" BASIS,\n// WITHOUT WARRANTIES OR CONDITIONS OF ANY KIND, either express or implied.\n// See the License for the specific language governing permissions and\n// limitations under the License.\n\npragma solidity 0.4.19;\n\nimport \"./Owned.sol\";\nimport \"./Certifiers.sol\";\n\n\n// IDSilo is a user claim container. Each user has it's own Silo.\ncontract IdSilo is Owned {\n    enum ApprovalState{initial, approved, denied, requested}\n\n    struct Cert {\n        ApprovalState state;\n        uint256 expiryTimestamp;\n        uint16 certainty; // basis points of certainty\n    }\n\n    struct DataEntry {\n        string dataType;\n        string name;\n        bytes32 hash;  // document / claim body hash\n        mapping(address => Cert) certifications;  // certifier -> Cert instance\n    }\n\n    Certifiers public certifiers;\n    mapping(bytes32 => DataEntry) public dataEntries;  // document.id -> dataEntry\n    mapping(bytes32 => address[]) public dataCertifiers;\n    bytes32[] public entryIds;\n\n    function getCertification(bytes32 entryId, address certifier) public view\n        returns(ApprovalState state, uint256 expiryTimestamp, uint16 certainty){\n        Cert storage cert = dataEntries[entryId].certifications[certifier];\n        state = cert.state;\n        expiryTimestamp = cert.expiryTimestamp;\n        certainty = cert.certainty;\n    }\n\n    function addDataEntry(string name, string dataType, bytes32 hash) public onlyOwner {\n        bytes32 hashedName = keccak256(name);\n        dataEntries[hashedName] = DataEntry(dataType, name, hash);\n        entryIds.push(hashedName);\n    }\n\n    // check that the certifier is still valid\n    // add the request with state requested to the certifications mapping\n    function requestCertification(address certAddr, string entryId) public onlyOwner {\n        bytes32 hashedEntryId = keccak256(entryId);\n        dataEntries[hashedEntryId].certifications[certAddr].state = ApprovalState.requested;\n        dataCertifiers[hashedEntryId].push(certAddr);\n    }\n\n    // must only be executable by active certifiers\n    function certifyClaim(\n            string entryId,\n            ApprovalState state,\n            uint256 expiryTimestamp,\n            uint16 certainty) public {\n        bytes32 hashedEntryId = keccak256(entryId);\n        DataEntry storage entry = dataEntries[hashedEntryId];\n        Cert storage cert = entry.certifications[msg.sender];\n        require(cert.state == ApprovalState.requested);\n        cert.state = state;\n        cert.expiryTimestamp = expiryTimestamp;\n        cert.certainty = certainty;\n    }\n}\n",
  "sourcePath": "/Users/mroon/Documents/projects/blockchaingers/contracts/IdSilo.sol",
  "compiler": {
    "name": "solc",
    "version": "0.4.19+commit.c4cbbb05.Emscripten.clang"
  },
  "schemaVersion": "2.0.0",
  "updatedAt": "2018-04-07T15:56:49.075Z"
}